:020000040800F2
:1000000000000220F17600085975000867750008A5
:100010006D75000873750008797500080000000010
:10002000000000000000000000000000F14F000888
:100030007F75000800000000315200084970000878
:1000400041770008417700084177000841770008B0
:1000500041770008417700082159000859590008E4
:1000600091590008C9590008015A00084177000851
:100070004177000841770008417700084177000880
:100080004177000841770008417700084177000870
:10009000417700084177000841770008395A000885
:1000A0004177000841770008417700084177000850
:1000B0004177000841770008417700084177000840
:1000C0004177000841770008417700084177000830
:1000D0004177000871620008CD62000829630008BA
:1000E000295B000841770008417700084177000844
:1000F0004177000841770008417700084177000800
:1001000041770008417700084177000841770008EF
:1001100085630008E1630008417700084177000823
:1001200041770008417700084177000841770008CF
:1001300041770008417700084177000841770008BF
:1001400041770008417700084177000841770008AF
:100150004177000841770008417700083D640008B6
:10016000417700084177000841770008417700088F
:10017000417700084177000841770008000000003F
:080180004177000841770008F7
:1001900010B5054C237833B9044B13B10448AFF3C1
:1001A00000800123237010BDF00200200000000039
:1001B000E499020808B5034B1BB103490348AFF3A8
:1001C000008008BD00000000F4020020E49902084D
:1001D00081F0004102E000BF83F0004330B54FEAF8
:1001E00041044FEA430594EA050F08BF90EA020F65
:1001F0001FBF54EA000C55EA020C7FEA645C7FEAF8
:10020000655C00F0E2804FEA5454D4EB5555B8BF1A
:100210006D420CDD2C4480EA020281EA030382EA8B
:10022000000083EA010180EA020281EA0303362D1D
:1002300088BF30BD11F0004F4FEA01314FF4801CF0
:100240004CEA113102D0404261EB410113F0004F02
:100250004FEA03334CEA133302D0524263EB4303B9
:1002600094EA050F00F0A780A4F10104D5F1200E57
:100270000DDB02FA0EFC22FA05F2801841F10001B2
:1002800003FA0EF2801843FA05F359410EE0A5F186
:1002900020050EF1200E012A03FA0EFC28BF4CF0B7
:1002A000020C43FA05F3C01851EBE37101F000456D
:1002B00007D54FF0000EDCF1000C7EEB00006EEB7A
:1002C0000101B1F5801F1BD3B1F5001F0CD3490804
:1002D0005FEA30004FEA3C0C04F101044FEA44525B
:1002E00012F5800F80F09A80BCF1004F08BF5FEAE2
:1002F000500C50F1000041EB045141EA050130BDC2
:100300005FEA4C0C404141EB0101013C28BFB1F5D3
:10031000801FE9D291F0000F04BF01460020B1FA1E
:1003200081F308BF2033A3F10B03B3F120020CDAF1
:100330000C3208DD02F1140CC2F10C0201FA0CF0CF
:1003400021FA02F10CE002F11402D8BFC2F1200C34
:1003500001FA02F120FA0CFCDCBF41EA0C019040EA
:10036000E41AA2BF01EB0451294330BD6FEA040433
:100370001F3C1CDA0C340EDC04F11404C4F120021E
:1003800020FA04F001FA02F340EA030021FA04F330
:1003900045EA030130BDC4F10C04C4F1200220FA87
:1003A00002F001FA04F340EA0300294630BD21FAC5
:1003B00004F0294630BD94F0000F83F4801306BF8B
:1003C00081F480110134013D4EE77FEA645C18BF7F
:1003D0007FEA655C29D094EA050F08BF90EA020F16
:1003E00005D054EA000C04BF1946104630BD91EA0E
:1003F000030F1EBF0021002030BD5FEA545C05D111
:100400004000494128BF41F0004130BD14F580044F
:100410003CBF01F5801130BD01F0004545F0FE41C3
:1004200041F470014FF0000030BD7FEA645C1ABFF8
:10043000194610467FEA655C1CBF0B46024650EA2F
:10044000013406BF52EA033591EA030F41F400215B
:1004500030BD00BF90F0000F04BF0021704730B5E1
:100460004FF4806404F132044FF000054FF00001B6
:1004700050E700BF90F0000F04BF0021704730B577
:100480004FF4806404F1320410F0004548BF40424C
:100490004FF000013EE700BF42004FEAE2014FEAA1
:1004A00031014FEA02701FBF12F07F4393F07F4F7C
:1004B00081F06051704732F07F4208BF704793F07F
:1004C0007F4F04BF41F40021704730B54FF4607492
:1004D00001F0004521F000411CE700BF50EA010295
:1004E00008BF704730B54FF000050AE050EA01023E
:1004F00008BF704730B511F0004502D5404261EBAE
:1005000041014FF4806404F132045FEA915C3FF4EE
:10051000D8AE4FF003025FEADC0C18BF03325FEA8B
:10052000DC0C18BF033202EBDC02C2F1200300FA3C
:1005300003FC20FA02F001FA03FE40EA0E0021FA61
:1005400002F11444BDE600BF70B54FF0FF0C4CF44F
:10055000E06C1CEA11541DBF1CEA135594EA0C0F01
:1005600095EA0C0F00F0DEF82C4481EA030621EA3C
:100570004C5123EA4C5350EA013518BF52EA033577
:1005800041F4801143F4801338D0A0FB02CE4FF029
:100590000005E1FB02E506F00042E0FB03E54FF059
:1005A0000006E1FB03569CF0000F18BF4EF0010E51
:1005B000A4F1FF04B6F5007F64F5407404D25FEA4D
:1005C0004E0E6D4146EB060642EAC62141EA555100
:1005D0004FEAC52040EA5E504FEACE2EB4F1FD0C42
:1005E00088BFBCF5E06F1ED8BEF1004F08BF5FEAC0
:1005F000500E50F1000041EB045170BD06F0004672
:1006000046EA010140EA020081EA0301B4EB5C041E
:10061000C2BFD4EB0C0541EA045170BD41F4801116
:100620004FF0000E013C00F3AB8014F1360FDEBF3B
:10063000002001F0004170BDC4F10004203C35DA17
:100640000C341BDC04F11404C4F1200500FA05F39A
:1006500020FA04F001FA05F240EA020001F000423B
:1006600021F0004110EBD37021FA04F642EB0601B1
:100670005EEA430E08BF20EAD37070BDC4F10C04DB
:10068000C4F1200500FA04F320FA05F001FA04F29F
:1006900040EA020001F0004110EBD37041F100018B
:1006A0005EEA430E08BF20EAD37070BDC4F1200596
:1006B00000FA05F24EEA020E20FA04F301FA05F2FE
:1006C00043EA020321FA04F001F0004121FA04F2A6
:1006D00020EA020000EBD3705EEA430E08BF20EA76
:1006E000D37070BD94F0000F0FD101F000464000B0
:1006F00041EB010111F4801F08BF013CF7D041EA32
:10070000060195F0000F18BF704703F00046520035
:1007100043EB030313F4801F08BF013DF7D043EA06
:100720000603704794EA0C0F0CEA135518BF95EABC
:100730000C0F0CD050EA410618BF52EA4306D1D143
:1007400081EA030101F000414FF0000070BD50EA62
:10075000410606BF1046194652EA430619D094EAEC
:100760000C0F02D150EA013613D195EA0C0F05D1D6
:1007700052EA03361CBF104619460AD181EA03012A
:1007800001F0004141F0FE4141F470014FF00000E2
:1007900070BD41F0FE4141F4780170BD70B54FF07D
:1007A000FF0C4CF4E06C1CEA11541DBF1CEA1355FD
:1007B00094EA0C0F95EA0C0F00F0A7F8A4EB0504DF
:1007C00081EA030E52EA03354FEA013100F08880D6
:1007D0004FEA03334FF0805545EA131343EA12639F
:1007E0004FEA022245EA111545EA10654FEA002654
:1007F0000EF000419D4208BF964244F1FD0404F50D
:10080000407402D25B084FEA3202B61A65EB030568
:100810005B084FEA32024FF480104FF4002CB6EB25
:10082000020E75EB030E22BFB61A754640EA0C00A5
:100830005B084FEA3202B6EB020E75EB030E22BFE5
:10084000B61A754640EA5C005B084FEA3202B6EB26
:10085000020E75EB030E22BFB61A754640EA9C00E5
:100860005B084FEA3202B6EB020E75EB030E22BFB5
:10087000B61A754640EADC0055EA060E18D04FEA73
:10088000051545EA16754FEA06164FEAC30343EA13
:1008900052734FEAC2025FEA1C1CC0D111F4801FE0
:1008A0000BD141EA00014FF000004FF0004CB6E7D9
:1008B00011F4801F04BF01430020B4F1FD0C88BF78
:1008C000BCF5E06F3FF6AFAEB5EB030C04BFB6EB83
:1008D000020C5FEA500C50F1000041EB045170BD76
:1008E0000EF0004E4EEA113114EB5C04C2BFD4EBA3
:1008F0000C0541EA045170BD41F480114FF0000E27
:10090000013C90E645EA060E8DE60CEA135594EAA2
:100910000C0F08BF95EA0C0F3FF43BAF94EA0C0FA5
:100920000AD150EA01347FF434AF95EA0C0F7FF41A
:1009300025AF104619462CE795EA0C0F06D152EA6E
:1009400003353FF4FDAE1046194622E750EA410652
:1009500018BF52EA43067FF4C5AE50EA41047FF463
:100960000DAF52EA43057FF4EBAE12E74FF0FF3CC8
:1009700006E000BF4FF0010C02E000BF4FF0010C99
:100980004DF804CD4FEA410C7FEA6C5C4FEA430C12
:1009900018BF7FEA6C5C1BD001B050EA410C0CBF61
:1009A00052EA430C91EA030F02BF90EA020F0020C3
:1009B000704710F1000F91EA030F58BF994208BF2A
:1009C00090422CBFD8176FEAE37040F001007047E7
:1009D0004FEA410C7FEA6C5C02D150EA013C07D13E
:1009E0004FEA430C7FEA6C5CD6D152EA033CD3D089
:1009F0005DF8040B704700BF8446104662468C4683
:100A00001946634600E000BF01B5FFF7B7FF0028B5
:100A100048BF10F1000F01BD4DF808EDFFF7F4FFDE
:100A20000CBF012000205DF808FB00BF4DF808ED69
:100A3000FFF7EAFF34BF012000205DF808FB00BF8C
:100A40004DF808EDFFF7E0FF94BF012000205DF8AE
:100A500008FB00BF4DF808EDFFF7CEFF94BF012063
:100A600000205DF808FB00BF4DF808EDFFF7C4FF5C
:100A700034BF012000205DF808FB00BF4A0011D2FE
:100A800012F5001211D20DD56FF47873B3EB6252E8
:100A90000ED44FEAC12343F0004343EA505323FAF4
:100AA00002F070474FF00000704750EA013002D169
:100AB0004FF0FF3070474FF00000704753B94AB90C
:100AC000002908BF00281CBF4FF0FF314FF0FF3056
:100AD00001F0DEB8ADF1080C6DE904CE00F006F8C7
:100AE000DDF804E0DDE9022304B070472DE9F047AA
:100AF000089D04468E46002B4DD18A42944669D902
:100B0000B2FA82F252B101FA02F3C2F1200120FAE4
:100B100001F10CFA02FC41EA030E94404FEA1C4832
:100B2000210CBEFBF8F61FFA8CF708FB16E341EA2E
:100B3000034306FB07F199420AD91CEB030306F1B4
:100B4000FF3080F01F81994240F21C81023E6344D5
:100B50005B1AA4B2B3FBF8F008FB103344EA034479
:100B600000FB07F7A7420AD91CEB040400F1FF338E
:100B700080F00A81A74240F207816444023840EACB
:100B80000640E41B00261DB1D4400023C5E9004304
:100B90003146BDE8F0878B4209D9002D00F0EF8087
:100BA0000026C5E9000130463146BDE8F087B3FABA
:100BB00083F6002E4AD18B4202D3824200F2F980A2
:100BC000841A61EB030301209E46002DE0D0C5E9A5
:100BD000004EDDE702B9FFDEB2FA82F2002A40F0F1
:100BE0009280A1EB0C014FEA1C471FFA8CFE0126F4
:100BF000200CB1FBF7F307FB131140EA01410EFB98
:100C000003F0884208D91CEB010103F1FF3802D23E
:100C1000884200F2CB804346091AA4B2B1FBF7F038
:100C200007FB101144EA01440EFB00FEA64508D95B
:100C30001CEB040400F1FF3102D2A64500F2BB8098
:100C40000846A4EB0E0440EA03409CE7C6F12007E7
:100C5000B34022FA07FC4CEA030C20FA07F401FA2D
:100C600006F31C43F9404FEA1C4900FA06F3B1FBB6
:100C7000F9F8200C1FFA8CFE09FB181140EA01411B
:100C800008FB0EF0884202FA06F20BD91CEB0101B8
:100C900008F1FF3A80F08880884240F28580A8F110
:100CA00002086144091AA4B2B1FBF9F009FB101162
:100CB00044EA014100FB0EFE8E4508D91CEB010100
:100CC00000F1FF346CD28E456AD90238614440EAA3
:100CD0000840A0FB0294A1EB0E01A142C846A64623
:100CE00056D353D05DB1B3EB080261EB0E0101FAAC
:100CF00007F722FA06F3F1401F43C5E90071002609
:100D00003146BDE8F087C2F12003D8400CFA02FC5E
:100D100021FA03F3914001434FEA1C471FFA8CFE6E
:100D2000B3FBF7F007FB10360B0C43EA064300FB5E
:100D30000EF69E4204FA02F408D91CEB030300F1FC
:100D4000FF382FD29E422DD9023863449B1B89B2B3
:100D5000B3FBF7F607FB163341EA034106FB0EF33C
:100D60008B4208D91CEB010106F1FF3816D28B42E9
:100D700014D9023E6144C91A46EA004638E72E46B5
:100D8000284605E70646E3E61846F8E64B45A9D2AD
:100D9000B9EB020864EB0C0E0138A3E74646EAE71C
:100DA000204694E74046D1E7D0467BE7023B6144CA
:100DB00032E7304609E76444023842E703685A00E4
:100DC0004CBF43F0004323F000431844704700BF7A
:100DD0002DE9F84329B34F1E044615463E464FF011
:100DE000000808EB060101EBD171491004EBC109C1
:100DF0004846FFF7E3FF0346C80008308F4220440F
:100E000009D0AB4209D8FFF7D9FF0138A8420AD26E
:100E100001F10108E5E7AB4205D9884501D04E1E36
:100E2000DFE74FF000094846BDE8F883012807D006
:100E3000022807D0044B00280CBF1846002070473A
:100E40000248704702487047051500080915000858
:100E50000D15000830B5234B83B004468D1E3BB3FF
:100E600001A92846AFF30080E8B101992A46FFF7AF
:100E7000AFFF0146B8B1FFF7A1FF4B68A064012B9B
:100E80002CD0002B01F1040024DBFFF797FF002397
:100E9000C4E913030368002B11DBFFF78FFF206108
:100EA000002003B030BD00230920236103B030BD12
:100EB0000D4B0E49C91AC91018460191D6E7C3F364
:100EC0000360FFF7B3FF0028206114BF0020092052
:100ED00003B030BD0123C4E91303DBE70023236122
:100EE0000520DEE70000000050F0020818F30208B9
:100EF0000368DA0710B5044606D49B0700F14800E2
:100F000009D500F05BFC2368590709D51A070ED5EF
:100F1000DB0613D510BD00F049FC23685907F5D452
:100F200004F1D00000F052FC23681A07F0D404F555
:100F3000A87000F053FC2368DB06EBD404F5E870DE
:100F4000BDE8104000F08EBC0920704703460068E1
:100F500000B11844704700BF704700BF70B5044629
:100F60000E46316C2046FFF775FF054688B9326C96
:100F70006261236932462146012098470828F0D053
:100F8000072806D12846316CFFF7E6FF301D00F038
:100F900001FC20F061F900BF2DE9F0470D1DD0F8EC
:100FA0000C80D0F81890074614460FCDADF5727D31
:100FB0000DF10C0CACE80F000FCDACE80F000FCD1D
:100FC000ACE80F0095E80F0002AE4FF0000E8CE881
:100FD0000F00C6F800E020E0336C7B614FF4F07244
:100FE00031467AA820F0A2FF3B697AAA39465046DA
:100FF0009847889B73642146CDE9006905463B46C6
:101000003A460120C0470446E0B94FF4F0727AA98D
:10101000304620F08BFF082D1AD1316C3846FFF78F
:1010200019FF09345FFA84FA05460028D4D0B36B5F
:1010300073643A46CDE900693B464AF0100101204D
:10104000C04700B1092528460DF5727DBDE8F0873F
:10105000072DF7D12046316CFFF77EFF03A800F083
:1010600099FB00BF406C7047F0B5CB6B0B6401F18E
:10107000040C0E460546BCE80F00F9B001AC0FC4E5
:10108000BCE80F000FC4BCE80F000FC49CE80F00C1
:101090004FF0FF3784E80F00009706E02B696A469F
:1010A000294698470828044608D110992846FFF792
:1010B000D1FE0028F2D0092079B0F0BD6846FFF7D4
:1010C00017FF062CF7D131462846FFF747FF00BF30
:1010D000C160D96B82611964002219465CE700BFC8
:1010E00070B5C66843690B64AEB903690A46044625
:1010F0000D46014602209847072805D008280FD141
:1011000029462046FFF72AFF3046296CFFF724FFC7
:10111000281D00F03FFB0122FFF73EFF20F09CF866
:1011200020F09AF8C2681AB1CA6B0A64002233E749
:101130009AE700BF704700BF836801460BB10120EA
:1011400018477047012912D009D873B90F2A0CD853
:1011500000EB820218465368009A13607047033907
:10116000012994BF012002207047022070470846E1
:10117000704700BF00B585B00A46002303A900915F
:101180001946FFF7DFFF039805B05DF804FB00BFC9
:10119000012912D009D873B90F2A0CD800EB8200AC
:1011A000009A12684260184670470339012994BFBB
:1011B000012002207047022070470846704700BF98
:1011C00010B584B0002303AC039200940A4619467C
:1011D000FFF7DEFF04B010BD70B5D36B136402F1EE
:1011E000040C05460C46BCE80F00ADF50E7D0DF174
:1011F0005C0EAEE80F00BCE80F00AEE80F00BCE8E4
:101200000F00AEE80F009CE80F004FF0FF368EE8AD
:101210000F00169610E0FFF7D3FF214616A8A84747
:10122000034616AA6946082083B9049B98470528F7
:1012300006460CD0092809D026996846FFF70AFE11
:1012400003466A460C2116A8002BE4D0092616A8EE
:10125000FFF74EFE30460DF50E7D70BD2DE9F04FC7
:10126000CC6C89B01E4654F8043B06940D461746D4
:1012700000F00308002E79D01A0C1B0405938DF89A
:101280001D200223D2B204EB82048DF81C302B6D9A
:10129000B8F1020F08BFAC6B13F001030CD005A925
:1012A000384600F079FB18B9082009B0BDE8F08F86
:1012B000092009B0BDE8F08FD4F800A0BAF1000F02
:1012C000EDD0019300F008030293022E4AD0B4F847
:1012D00000A0B4F802900434AB6C29F0010B0F218C
:1012E00038469B44FFF746FF834539D82AF001036F
:1012F0009B44834594BF002001204FEA490303F03B
:1013000002030AF0010A43EA0A03012B49D0022B27
:1013100032D0002BCCD1B8F1000F02D0002840F021
:10132000CD800434D4F800A0BAF1000FCDD105A9C6
:10133000384600F031FB0028BAD1019B002BB3D016
:101340000F213846FFF716FF0E2102463846FFF7F9
:1013500037FF38466A4A0F21FFF732FF0720A8E718
:101360000020CAE7D4F804900834B5E71B020593BF
:101370000323ADF81C308AE7236823F0004BB8F153
:10138000000F45D128B1029A002A5CD0BBF1000FB2
:1013900074D0002B00DA04340BF1010B04EB8B0446
:1013A000C0E7B8F1000F19D1B0B163682268991C89
:1013B0004FEAD2723FF47CAF05F15801013304913A
:1013C00000F09080201DFFF7C1FD04AB01462846C8
:1013D00006F058FA00285BD10834A3E70D213846FF
:1013E000D5F82090FFF7C6FE8145F5D1AB6A9C4247
:1013F000F2D12046FFF7E2FC0F2102463846FFF704
:10140000DFFE38462A460021FFF7DAFE072050E7C4
:101410000D213846D5F82090FFF7ACFE814501D06C
:101420002368B6E7AB6A9C42FAD104230022C5E9DF
:101430000B23E318C5F828B06B632368002B59DB36
:1014400001230193A8E705F15803CDF80C8004F1BE
:10145000040AB04691461E460EE050460496FFF739
:1014600075FD0022014604AB284609F101090AF185
:10147000040A06F007FAE0B9D945EED10D21384645
:10148000FFF778FE049BAC62C5E90803062010E76D
:1014900081460D213846FFF76DFEB9F1020F286233
:1014A00025D12B46049A43F82C2F6B62AC620620A0
:1014B000FFE646462368DDF80C806AE72046FFF722
:1014C0007DFC04340246AC632846144606F038FA24
:1014D00000283FF4EDAE384622460F21FFF770FE9C
:1014E0000720E6E60D213846FFF744FE2862049BFC
:1014F0006B62DBE70BF1010004EB80007AE700BFD1
:10150000350002080023A9E60123A7E60223A5E689
:101510002DE9F0430646C3B015461C46042900F2E7
:10152000BF80DFE801F09E57BD2D0300002C40F086
:10153000B780102A00F2B4800368D80600F1F98061
:1015400020AF384600F098F9B46B394600234FF0CD
:10155000010C0CFA03F22A42204603F1010303D0E6
:1015600050F8042B0A600446042B01F10401F0D169
:101570003846B46300F076F9002043B0BDE8F0834C
:10158000032C40F08D8094B204EB1243102B4FEAF1
:10159000124500F2858003681F0700F1D28020AF5A
:1015A000384600F03DF9B26B07EBC50154B10B466C
:1015B000D01A01EBC401E4001D5843F8045B8B42D0
:1015C000FAD122443846B26300F008F9002043B053
:1015D000BDE8F083012C4FEA124895B25CD0052C8F
:1015E0005ED108EB0509B9F1200F59D8B8F10F0FFA
:1015F00079D9A946002D40F08A80B36B6DB320AF36
:101600004FF0000907EBC807043F03EBC50553F88B
:10161000041B47F8041FAB42F9D1B9F1000F0FD0FA
:101620006F464146102938BF102107EBC1018439AC
:1016300003EBC90553F8040B41F8040FAB42F9D191
:10164000012C00F08680B8F10F0FB56347D9B9F1CE
:10165000000F02D0684600F0B9F8002043B0BDE8A2
:10166000F083ECB9806B23461FFA82FC0124371DFE
:1016700004FA03F212EA0C0F014604D051F8042BCD
:1016800047F8232008460133102BF1D115F40055FB
:10169000E3D1B063284604E008EB0503102B03D91F
:1016A000022043B0BDE8F083B8F10F0FF8D83368DB
:1016B000DA0706D5304623F0030340F8483B00F034
:1016C00079F820AF384600F075F8B36B002D97D14C
:1016D0001D460435B563384600F068F8BDE720A81C
:1016E00000F06CF8B3E7B9F1100F40D9A9F1100977
:1016F0003368D90708D523F00103304643F00203CD
:1017000040F8483B00F05EF8B9F1000F32D0336882
:101710005A0720D4B8F10F0F25D96F463846C8F1C3
:10172000100500F057F8002DB36B7FF77AAF20AFAC
:1017300068E723F01003336006F5E87000F09CF8CA
:10174000FEE623F00803036000F5A87000F068F8D7
:1017500025E720AFBDE7304623F0040340F8D03B37
:1017600000F038F8D6E720A800F02CF8D5E74FF0C5
:101770000009BDE7B8F10F0F3FF63FAF20AF384685
:1017800000F020F8B36B002D7FF43AAF384600F03C
:1017900015F862E700F1340191E838009C46A6464E
:1017A0004CF8045D90E8FF0FE54600BD90EC210B7E
:1017B000704700BF80EC210B704700BF90EC200BFE
:1017C000704700BF80EC200B704700BFD0EC200BAF
:1017D000704700BFC0EC200B704700BFF0EC020167
:1017E000F0EC0211F0EC0221F0EC0231F0EC0241DD
:1017F000F0EC0251F0EC0261F0EC0271F0EC0281CD
:10180000F0EC0291F0EC02A1F0EC02B1F0EC02C1BC
:10181000F0EC02D1F0EC02E1F0EC02F1704700BF15
:10182000E0EC0201E0EC0211E0EC0221E0EC02311C
:10183000E0EC0241E0EC0251E0EC0261E0EC02710C
:10184000E0EC0281E0EC0291E0EC02A1E0EC02B1FC
:10185000E0EC02C1E0EC02D1E0EC02E1E0EC02F1EC
:10186000704700BFB0FC0181B0FC0191B0FC01A148
:10187000B0FC01B1704700BFA0FC0181A0FC019148
:10188000A0FC01A1A0FC01B1704700BFEC4600B56F
:101890002DE900502DE9FF1F4FF000032DE90C004A
:1018A00001A9FFF7E1FBDDF840E012B0704700BF8F
:1018B000EC4600B52DE900502DE9FF1F4FF0000365
:1018C0002DE90C0001A9FFF70BFCDDF840E012B098
:1018D000704700BFEC4600B52DE900502DE9FF1F11
:1018E0004FF000032DE90C0001A9FFF71BFCDDF808
:1018F00040E012B0704700BFEC4600B52DE9005043
:101900002DE9FF1F4FF000032DE90C0001ABFFF79D
:10191000DFFBDDF840E012B0704700BFEC4600B5D9
:101920002DE900502DE9FF1F4FF000032DE90C00B9
:1019300001AAFFF751FCDDF840E012B0704700BF8C
:10194000027A03467AB9427AA2B14168013A10B4E8
:101950004272086803220C1D1A7202025C60000EBB
:1019600010BC1A6070470068013A1A7202021A60CD
:10197000000E7047B020704700B585B0002303AA61
:10198000009219460C22FFF7DDFB039805B05DF8C5
:1019900004FB00BFF0E700BF2DE9F043054685B02A
:1019A0000E464FF000083046FFF7CAFFB028044645
:1019B00000F0BA80070620D500F0F003802B4DD050
:1019C000902B36D0A02B60D0B02B74D0C02B00F061
:1019D0008B8000F0F803D02B0BD100F0070201320E
:1019E000052342F4002201212846FFF791FD00283B
:1019F000D9D0092005B0BDE8F0838300DBB21F1DFC
:101A00000DF10C0900231946CDF800900D2228464F
:101A1000FFF798FB039BCDF8009060064CBFDF1BDF
:101A2000FF1800230D22194628460397FFF7B0FB45
:101A3000B9E700F00D030D2BDBD003AF002300F05E
:101A40000F02194600972846FFF77CFB00230097FA
:101A50000D2219462846FFF79BFBA4E73046FFF707
:101A60006FFF24022043B0F5004FC2D004010023D1
:101A7000A2B219462846FFF74BFD0028B9D114F44D
:101A8000004F18BF4FF001088DE7C24302F0070373
:101A90004FF47F621A41010702F47F624FF00003A6
:101AA00048BF42F4804219462846FFF731FD00281E
:101AB0003FF479AF9DE7B1283BD0B22800F0938086
:101AC000B32841D000F0FC03B42B92D000F0070201
:101AD0000132012342F4002219462846FFF718FD7F
:101AE00000283FF460AF84E7C6284AD0C72854D006
:101AF00000F0F803C02B63D0C82868D0C9287FF451
:101B000078AF3046FFF71CFF020300F00F0002F42D
:101B1000702201300243012105232846FFF7F8FC1B
:101B200000283FF440AF64E7B8F1000F18D0002060
:101B300060E73046FFF704FF024600283FF459AF44
:101B400010F0F003C8D054E73046FFF7F9FE020367
:101B500000F00F03013302F470221A430123BBE7A4
:101B600003AC43460E22414600942846FFF7EAFAAA
:101B7000009443460F2241462846FFF709FB4046A2
:101B800038E73046FFF7DCFE020300F00F030133B5
:101B900002F470221A4303239EE73046FFF7D0FE7B
:101BA000024600283FF425AF10F0F0037FF421AF88
:101BB00004212846FFF7ACFC00283FF4F4AE18E7F8
:101BC00000F00F020132032342F4202284E7304662
:101BD000FFF7B6FE00F0F00200F00F031032013301
:101BE00043EA023297E700230DF10C090D22194652
:101BF000CDF800902846FFF7A5FA3046FFF7A0FE83
:101C000002064FF002040CD5039B00F07F00A040B9
:101C1000184403903046FFF793FE030604F10704CF
:101C2000F2D4039BCDF8009000F07F02A24003F5B0
:101C300001731A440023039219460D222846FFF728
:101C4000A7FAB0E610B5C26C536884B04FF0030C2D
:101C500008321C0208461B0E01A9019402928DF85D
:101C60000CC08DF80D30FFF797FE04B010BD00BF1B
:101C700008B5FFF78FFE806C08BD00BF08B5FFF701
:101C800089FEC06CC379023300EB830008BD00BF3E
:101C9000704700BF000000000000000000000000CE
:101CA00001F0FF01102A2BDB10F0070F08D010F80D
:101CB000013B013A8B422DD010F0070F42B3F6D111
:101CC000F0B441EA012141EA014122F007047FF02A
:101CD00000070023F0E80256083C85EA010586EA81
:101CE000010685FA47F5A3FA87F586FA47F6A5FABD
:101CF00087F68EB9EED1F0BC01F0FF0102F00702C9
:101D000032B110F8013B013A83EA010313B1F8D173
:101D10000020704701387047002D06BF3546033854
:101D2000073815F0010F07D1013015F4807F02BF8D
:101D3000013015F4C03F0130F0BC0138704700BFDE
:101D400010F8012B11F8013B012A28BF9A42F7D065
:101D5000D01A7047034613F8012B002AFBD1181A3A
:101D6000013870474FEA410C7FEA6C5C02D150EABF
:101D7000013C0AD14FEA430C7FEA6C5C02D152EA83
:101D8000033C02D14FF0000070474FF00100704754
:101D90004FEA410212F5001215D211D56FF4787393
:101DA000B3EB625212D94FEAC12343F0004343EA36
:101DB000505311F0004F23FA02F018BF4042704711
:101DC0004FF00000704750EA013005D111F000409B
:101DD00008BF6FF0004070474FF00000704700BF31
:101DE0004FEA4102B2F1E04324BFB3F5001CDCF13D
:101DF000FE5C0DD901F0004C4FEAC0024CEA507075
:101E0000B2F1004F40EB830008BF20F001007047A3
:101E100011F0804F21D113F13872BCBF01F00040A6
:101E2000704741F480114FEA5252C2F11802C2F1D8
:101E3000200C10FA0CF320FA02F018BF40F0010059
:101E40004FEAC1234FEAD32303FA0CFC40EA0C000B
:101E500023FA02F34FEA4303CCE77FEA625307D148
:101E600050EA01331EBF4FF0FE4040F4400070477F
:101E700001F0004040F0FE4040F40000704700BF19
:101E800038B50022002304460D46FEF7CFFD28B9E1
:101E900020462946BDE8384000F00AB8204605F142
:101EA000004100F005F8404261EB410138BD00BF40
:101EB000D0B50C4B002206460F46FEF745FBFEF759
:101EC000DDFD0446FEF7C6FA074B0022FEF73CFB99
:101ED00002460B4630463946FEF77EF9FEF7CEFD48
:101EE0002146D0BD0000F03D0000F04180B483B039
:101EF00000AF7860064A7B6843F0BF6343F4003369
:101F0000D36000BF0C37BD465DF8047B704700BF4F
:101F100000ED00E080B485B000AF78600023FB7373
:101F20000023BB730F237B737B68DB78002B39D0D6
:101F3000274BDB68DB431B0ADBB203F00703FB73B1
:101F4000FB7BC3F10403BB737A7BFB7B42FA03F395
:101F50007B737B685B781A46BB7B02FA03F3FB73E7
:101F60007B689A787B7B1340DAB2FB7B1343FB736D
:101F7000FB7B1B01FB73174A7B681B781344FA7BBE
:101F800083F800237B681B7803F01F0311497A68EC
:101F900012785209D2B21046012202FA03F341F834
:101FA00020300FE07B681B7803F01F0309497A6833
:101FB00012785209D2B2104601229A4000F1200351
:101FC00041F8232000BF1437BD465DF8047B7047FD
:101FD00000ED00E000E100E080B483B000AF786085
:101FE0007B68042B06D1094B1B68084A43F00403A5
:101FF000136005E0054B1B68044A23F004031360DB
:1020000000BF0C37BD465DF8047B704710E000E070
:1020100080B483B000AF78607B681B6823F0010256
:102020007B681A607B6800221A607B6800225A6015
:102030007B6800229A607B680022DA607B6800225D
:102040001A617B6821225A617B68464A934203D118
:10205000454B3D229A607EE07B68444A934204D11E
:10206000414B4FF474629A6075E07B68404A93423A
:1020700004D13D4B4FF474129A606CE07B683D4A8A
:10208000934204D1384B4FF074629A6063E07B68EE
:10209000394A934203D1344B384ADA605BE07B68BB
:1020A000374A934203D1304B364ADA6053E07B68BB
:1020B000354A934203D12C4B344ADA604BE07B68BB
:1020C000334A934204D1284B4FF03D52DA6042E04C
:1020D0007B68304A934203D12F4B3D229A603AE00D
:1020E0007B682E4A934204D12B4B4FF474629A6062
:1020F00031E07B682A4A934204D1274B4FF4741293
:102100009A6028E07B68274A934204D1224B4FF023
:1021100074629A601FE07B68234A934203D11E4B8E
:10212000164ADA6017E07B68204A934203D11A4BC3
:10213000144ADA600FE07B681D4A934203D1164BC4
:10214000124ADA6007E07B681A4A934203D1124BC5
:102150004FF03D52DA6000BF0C37BD465DF8047B9E
:10216000704700BF106002400060024028600240DB
:102170004060024058600240706002403D00002014
:1021800088600240400F0020A060024000003D2017
:10219000B8600240106402400064024028640240BB
:1021A0004064024058640240706402408864024007
:1021B000A0640240B864024080B485B000AF78608B
:1021C00039600023FB607B681B68FB60FA68254B65
:1021D0001340FB603B681A683B68DB681A433B6846
:1021E0005B691A433B689B691A433B68DB691A4386
:1021F0003B681B6A1A433B685B6A1A433B689B6AED
:102200001A433B685B6B1A433B689B6B1343FA684A
:102210001343FB607B68FA681A607B685B69FB604C
:10222000FB6823F00703FB603B68DA6A3B681B6BC3
:102230001343FA681343FB607B68FA685A613B6892
:102240001A697B685A603B685A687B689A603B6889
:102250009A687B68DA6000BF1437BD465DF8047B7E
:10226000704700BF3F801CF080B483B000AF78603F
:102270000B46FB70FB78002B06D07B681B6843F095
:1022800001027B681A6005E07B681B6823F001028D
:102290007B681A6000BF0C37BD465DF8047B704751
:1022A00080B485B000AF78600023FB737B681B6847
:1022B00003F00103002B02D00123FB7301E0002394
:1022C000FB73FB7B18461437BD465DF8047B7047F3
:1022D00080B487B000AF786039600023FB750023BD
:1022E000FB607B68154A934202D8154B3B6101E0C5
:1022F000144B3B613B6803F00053002B03D03B6958
:102300005B68FB6002E03B691B68FB60FB6823F0D5
:10231000F02323F08213FB60FA683B681340002B24
:1023200002D00123FB7501E00023FB75FB7D1846FD
:102330001C37BD465DF8047B704700BF0F64024048
:10234000006002400064024080B485B000AF786055
:1023500039607B68104A934202D8104BFB6001E061
:102360000F4BFB603B6803F00053002B07D03B682A
:1023700023F0F02323F08213FA68D36006E03B6871
:1023800023F0F02323F08213FA68936000BF143720
:10239000BD465DF8047B70470F6402400060024058
:1023A0000064024080B485B000AF78600023FB7306
:1023B000084B5A697B681340002B02D00123FB7342
:1023C00001E00023FB73FB7B18461437BD465DF824
:1023D000047B7047003C014080B483B000AF78605C
:1023E000044A7B68536100BF0C37BD465DF8047B2F
:1023F000704700BF003C014080B487B000AF7860F8
:10240000396000237B6100233B610023FB600023D4
:102410007B6176E001227B6902FA03F33B613B6852
:102420001B683A691340FB60FA683B699A4265D1C0
:102430007B681A687B695B00032101FA03F3DB43C5
:102440001A407B681A607B681A683B681B791946DA
:102450007B695B0001FA03F31A437B681A603B68EF
:102460001B79012B03D03B681B79022B2ED17B6893
:102470009A687B695B00032101FA03F3DB431A408E
:102480007B689A607B689A683B685B7919467B69D0
:102490005B0001FA03F31A437B689A607B685A6811
:1024A0007B699BB2194601238B40DB431A407B6852
:1024B0005A607B685B683A68927911467A6992B291
:1024C00001FA02F292B21A437B685A607B68DA68BA
:1024D0007B699BB25B00032101FA03F3DB431A40E3
:1024E0007B68DA607B68DA683B68DB7919467B6970
:1024F0005B0001FA03F31A437B68DA607B690133FE
:102500007B617B690F2B85D900BF00BF1C37BD469F
:102510005DF8047B704780B485B000AF78600B46EF
:102520007B800023FB737B681A697B881340002B38
:1025300002D00123FB7301E00023FB73FB7B1846F1
:102540001437BD465DF8047B704780B483B000AF9C
:1025500078600B467B807B687A881A8300BF0C37D3
:10256000BD465DF8047B704780B483B000AF7860EF
:102570000B467B807B687A885A8300BF0C37BD4648
:102580005DF8047B704780B485B000AF78600B467F
:102590007B8013467B700023FB600023BB607A784E
:1025A0007B8803F007039B0002FA03F3FB607B8840
:1025B000DB089BB21A467B68083253F822207B88DE
:1025C00003F007039B000F2101FA03F3DB43798833
:1025D000C90889B2084602EA03017B6800F10802D3
:1025E00043F822107B88DB089BB21A467B680832CE
:1025F00053F82230FA681343BB607B88DB089BB238
:102600001A467B680832B96843F8221000BF1437B5
:10261000BD465DF8047B704780B489B000AF786038
:102620000023BB6100237B610023FB6102233B612C
:102630000023FB600223BB604A4B9B6803F00C0342
:10264000BB61BB69082B11D0BB69082B44D8BB699F
:10265000002B03D0BB69042B04D03DE07B68424AC9
:102660001A603DE07B68414A1A6039E03D4B5B6887
:102670009B0D03F00103FB603A4B5B6803F03F03E3
:10268000BB60FB68002B0CD0384ABB68B2FBF3F38D
:10269000344A52689209C2F3080202FB03F3FB6159
:1026A0000BE0314ABB68B2FBF3F32E4A5268920941
:1026B000C2F3080202FB03F3FB612A4B5B681B0CAD
:1026C00003F0030301335B003B61FA693B69B2FB32
:1026D000F3F27B681A6003E07B68234A1A6000BF4C
:1026E000204B9B6803F0F003BB61BB691B09BB6116
:1026F0001F4ABB6913441B78DBB27B617B681A6895
:102700007B69DA407B685A60164B9B6803F4E053A0
:10271000BB61BB699B0ABB61154ABB6913441B784B
:10272000DBB27B617B685A687B69DA407B689A60C0
:102730000C4B9B6803F46043BB61BB695B0BBB61E3
:102740000B4ABB6913441B78DBB27B617B685A6818
:102750007B69DA407B68DA6000BF2437BD465DF8EC
:10276000047B7047003802400024F40000127A0015
:102770000400002080B483B000AF78600B46FB708B
:10278000FB78002B06D00A4B1A6B09497B68134370
:102790000B6306E0064B1A6B7B68DB43044913406E
:1027A0000B6300BF0C37BD465DF8047B704700BF6C
:1027B0000038024080B483B000AF78600B46FB70F5
:1027C000FB78002B06D00A4B1A6C09497B6813432F
:1027D0000B6406E0064B1A6C7B68DB43044913402C
:1027E0000B6400BF0C37BD465DF8047B704700BF2B
:1027F0000038024080B483B000AF78600B46FB70B5
:10280000FB78002B06D00A4B5A6C09497B681343AE
:102810004B6406E0064B5A6C7B68DB43044913406B
:102820004B6400BF0C37BD465DF8047B704700BFAA
:102830000038024080B58AB000AF7860396000236C
:102840007B6200233B620023FB610023BB617B684A
:102850001B8A9BB27B627B6A23F440537B623B689A
:10286000DB881A467B6A13437B627B6A9AB27B6879
:102870001A827B689B899BB27B627B6A23F4B0538C
:1028800023F00C037B623B689A883B681B891343E7
:102890009AB23B685B8913439BB21A467B6A134327
:1028A0007B627B6A9AB27B689A817B689B8A9BB2C7
:1028B0007B627B6A23F440737B623B689B891A4688
:1028C0007B6A13437B627B6A9AB27B689A8207F1C8
:1028D00008031846FFF7A0FE7B68304A934203D0F6
:1028E0007B682F4A934202D17B693B6201E03B69DE
:1028F0003B627B689B899BB21BB2002B0CDA3A6A65
:1029000013469B0013449A001A443B681B685B0003
:10291000B2FBF3F3FB610BE03A6A13469B001344EE
:102920009A001A443B681B689B00B2FBF3F3FB61FF
:10293000FB691C4AA2FB03235B091B017B627B6AC8
:102940001B09642202FB03F3FA69D31ABB617B689B
:102950009B899BB21BB2002B0CDABB69DB003233C4
:10296000104AA2FB03235B0903F007037A6A1343AF
:102970007B620BE0BB691B0132330A4AA2FB0323D3
:102980005B0903F00F037A6A13437B627B6A9AB296
:102990007B681A8100BF2837BD4680BD001001400A
:1029A000001401401F85EB5180B483B000AF786004
:1029B0000B46FB70FB78002B08D07B689B899BB291
:1029C00043F400539AB27B689A8107E07B689B8945
:1029D0009BB223F400539AB27B689A8100BF0C37F4
:1029E000BD465DF8047B704780B483B000AF78606B
:1029F0007B689B889BB2C3F308039BB218460C37D5
:102A0000BD465DF8047B704780B487B000AF786046
:102A10000B467B8013467B7000233B610023FB60E9
:102A20000023BB6000237B617B687B617B88DBB21A
:102A30005B09DBB23B617B8803F01F03FB60012273
:102A4000FB6802FA03F3BB603B69012B03D17B698E
:102A50000C337B6109E03B69022B03D17B691033A6
:102A60007B6102E07B6914337B617B78002B06D0AD
:102A70007B6919687B69BA680A431A6006E07B695A
:102A80001968BB68DA437B690A401A6000BF1C37CB
:102A9000BD465DF8047B704780B483B000AF7860BA
:102AA0000B467B807B88DB439AB27B681A8000BF31
:102AB0000C37BD465DF8047B704780B487B000AF2B
:102AC00078600B467B800023FB6000237B61002342
:102AD000BB600023FB747B88DBB25B09DBB2BB60AD
:102AE0007B8803F01F037B6101227B6902FA03F3F9
:102AF0007B61BB68012B07D17B689B899BB21A461F
:102B00007B6913407B6111E0BB68022B07D17B68B6
:102B10001B8A9BB21A467B6913407B6106E07B6887
:102B20009B8A9BB21A467B6913407B617B881B0A98
:102B30009BB2FB600122FB6802FA03F3FB607B6837
:102B40001B889BB21A46FB681340FB607B69002B15
:102B500005D0FB68002B02D00123FB7401E00023A9
:102B6000FB74FB7C18461C37BD465DF8047B704740
:102B700080B485B000AF78600B467B800023FB817A
:102B80000023BB817B881B0AFB81FB89012202FA9F
:102B900003F3BB81BB89DB439AB27B681A8000BF19
:102BA0001437BD465DF8047B704780B483B000AF36
:102BB00078607B6803F108027B685A607B684FF09D
:102BC000FF329A607B6803F108027B68DA607B68F9
:102BD00003F108027B681A617B6800221A6000BF5B
:102BE0000C37BD465DF8047B704780B483B000AFFE
:102BF00078607B6800221A6100BF0C37BD465DF823
:102C0000047B704780B485B000AF786039607B6822
:102C10005B68FB603B68FA685A60FB689A683B68CF
:102C20009A60FB689B683A685A60FB683A689A60E9
:102C30003B687A681A617B681B685A1C7B681A605B
:102C400000BF1437BD465DF8047B704780B485B083
:102C500000AF786039603B681B68BB60BB68B3F14C
:102C6000FF3F03D17B681B69FB600CE07B68083386
:102C7000FB6002E0FB685B68FB60FB685B681B68ED
:102C8000BA689A42F6D2FB685A683B685A603B6859
:102C90005B683A689A603B68FA689A60FB683A68D1
:102CA0005A603B687A681A617B681B685A1C7B68AB
:102CB0001A6000BF1437BD465DF8047B704780B4CE
:102CC00085B000AF78607B681B69FB607B685B68E0
:102CD0007A6892689A607B689B687A6852685A60E2
:102CE000FB685B687A689A4203D17B689A68FB68E4
:102CF0005A607B6800221A61FB681B685A1EFB68D9
:102D00001A60FB681B6818461437BD465DF8047BE3
:102D10007047000080B584B000AF786039607B6890
:102D2000FB60FB68002B05D140F203122A492B48B7
:102D30001FF00CFA02F026FAFB681A68FB68DB6BDE
:102D4000F968096C01FB03F31A44FB689A60FB689D
:102D500000229A63FB681A68FB685A60FB681A686D
:102D6000FB68DB6B013BF968096C01FB03F31A4458
:102D7000FB68DA60FB68FF2283F84420FB68FF22CF
:102D800083F845203B68002B14D1FB681B69002B9E
:102D90001AD0FB681033184601F03AF90346002BAD
:102DA00012D00F4B4FF080521A60BFF34F8FBFF31A
:102DB0006F8F09E0FB6810331846FFF7F6FEFB68DB
:102DC00024331846FFF7F1FE02F00AFA01231846F1
:102DD0001037BD4680BD00BF009A0208509A020815
:102DE00004ED00E080B58AB002AFF860B960134628
:102DF000FB71FB68002B05D14FF4BB7212491348DD
:102E00001FF0A4F9FB68BA6802FB03F3FB61FB69DE
:102E10005433184601F0BAFEB861BB69002B0DD0DF
:102E2000BB697B617B6954337B61FA79BB69009331
:102E300013467A69B968F86800F00AF8BB69184661
:102E40002037BD4680BD00BF009A0208509A020894
:102E500080B584B000AFF860B9607A60FB70BB6881
:102E6000002B03D1BB69BA691A6002E0BB697A68BA
:102E70001A60BB69FA68DA63BB69BA681A6401212F
:102E8000B869FFF747FFBB69FA7883F85020BB6940
:102E900000229A6400BF1037BD4680BD80B58AB05D
:102EA00000AFF860B9607A603B6000237B62FB682A
:102EB0003B623B6A002B05D140F2EA2279497A480D
:102EC0001FF044F9BB68002B03D13B6A1B6C002B3D
:102ED00001D1012300E00023002B05D140F2EB22B9
:102EE000704971481FF032F93B68022B03D13B6AED
:102EF000DB6B012B01D1012300E00023002B05D166
:102F00004FF43B72674968481FF020F901F016FA48
:102F10000346002B02D17B68002B01D1012300E086
:102F20000023002B05D140F2EF225E495E481FF0DE
:102F30000DF902F027F93B6A9A6B3B6ADB6B9A4208
:102F400002D33B68022B45D13B6A9B6BFB613A681D
:102F5000B968386A00F028FAB8613B6A9B6C002BAC
:102F600014D03B68022B02D1FB69002B2ED1386AAA
:102F700000F096FB0346002B28D04C4B4FF08052BC
:102F80001A60BFF34F8FBFF36F8F1FE03B6A5B6A1E
:102F9000002B10D03B6A2433184601F039F8034661
:102FA000002B13D0414B4FF080521A60BFF34F8F6C
:102FB000BFF36F8F0AE0BB69002B07D03B4B4FF08C
:102FC00080521A60BFF34F8FBFF36F8F02F008F982
:102FD000012363E07B68002B03D102F001F9002399
:102FE0005CE07B6A002B06D107F11003184601F064
:102FF00071F801237B6202F0F3F800F0F1FD02F0BA
:10300000C1F83B6A93F844305BB2B3F1FF3F03D1A0
:103010003B6A002283F844203B6A93F845305BB258
:10302000B3F1FF3F03D13B6A002283F8452002F051
:10303000D7F83A1D07F110031146184601F060F861
:103040000346002B24D1386A00F0B3FA0346002B64
:1030500018D03B6A10337A681146184600F08AFF90
:10306000386A00F031FA00F0C9FD0346002B7FF406
:1030700060AF0E4B4FF080521A60BFF34F8FBFF31B
:103080006F8F56E7386A00F01FFA00F0B7FD50E77F
:10309000386A00F019FA00F0B1FD0023184628370D
:1030A000BD4680BD009A0208509A020804ED00E077
:1030B00080B58CB000AFF860B9607A603B60FB68A7
:1030C000BB62BB6A002B05D14FF46F724A494B4873
:1030D0001FF03CF8BB68002B03D1BB6A1B6C002BB4
:1030E00001D1012300E00023002B05D140F2BD32C5
:1030F000414942481FF02AF83B68022B03D1BB6AC2
:10310000DB6B012B01D1012300E00023002B05D153
:1031100040F2BE32384939481FF018F802F00CF975
:10312000EFF311824FF0500383F31188BFF36F8FD9
:10313000BFF34F8FBA617B61BB697B62BB6A9A6BDD
:10314000BB6ADB6B9A4202D33B68022B46D1BB6A57
:1031500093F8453087F82330BB6A9B6BFB613A6874
:10316000B968B86A00F020F997F92330B3F1FF3F4E
:1031700029D1BB6A9B6C002B12D03B68022B02D179
:10318000FB69002B27D1B86A00F08AFA0346002BAE
:1031900021D07B68002B1ED07B6801221A601AE0C8
:1031A000BB6A5B6A002B16D0BB6A2433184600F05A
:1031B0002FFF0346002B0ED07B68002B0BD07B68C3
:1031C00001221A6007E097F823300133DBB25AB2CC
:1031D000BB6A83F845200123FB6201E00023FB6208
:1031E0007B6A3B613B6983F3118800BFFB6A184629
:1031F0003037BD4680BD00BF009A0208509A0208D1
:1032000080B58AB000AFF860B9607A6000237B6255
:10321000FB683B623B6A002B05D140F204525F49D8
:103220005F481EF093FFBB68002B03D13B6A1B6C09
:10323000002B01D1012300E00023002B05D14FF426
:10324000A162564956481EF081FF01F077F8034607
:10325000002B02D17B68002B01D1012300E0002369
:10326000002B05D140F20D524C494D481EF06EFF27
:1032700001F088FF3B6A9B6BFB61FB69002B1FD051
:10328000B968386A00F0FAF8FB695A1E3B6A9A631B
:103290003B6A1B69002B0FD03B6A1033184600F0C5
:1032A000B7FE0346002B07D03E4B4FF080521A600A
:1032B000BFF34F8FBFF36F8F01F092FF012369E0DF
:1032C0007B68002B03D101F08BFF002362E07B6A57
:1032D000002B06D107F11403184600F0FBFE012372
:1032E0007B6201F07DFF00F07BFC01F04BFF3B6A4D
:1032F00093F844305BB2B3F1FF3F03D13B6A002245
:1033000083F844203B6A93F845305BB2B3F1FF3F4A
:1033100003D13B6A002283F8452001F061FF3A1D8A
:1033200007F114031146184600F0EAFE0346002B8D
:1033300023D1386A00F027F90346002B17D03B6AE7
:1033400024337A681146184600F014FE386A00F0FB
:10335000BBF800F053FC0346002B89D1114B4FF012
:1033600080521A60BFF34F8FBFF36F8F80E7386AC8
:1033700000F0AAF800F042FC7AE7386A00F0A4F8FE
:1033800000F03CFC386A00F0FEF80346002B3FF4E6
:103390006FAF002318462837BD4680BD009A02084B
:1033A000509A020804ED00E080B586B000AFF860E6
:1033B000B9607A6000237B61FB689B6B3B61FB68B3
:1033C0001B6C002B0DD1FB681B68002B4DD1FB68DB
:1033D0009B68184600F0D0FF7861FB6800229A6075
:1033E00043E07B68002B19D1FB685868FB681B6CB5
:1033F0001A46B9681EF09AFDFB685A68FB681B6C98
:103400001A44FB685A60FB685A68FB689B689A42DA
:103410002BD3FB681A68FB685A6026E0FB68D86803
:10342000FB681B6C1A46B9681EF080FDFB68DA6801
:10343000FB681B6C5B421A44FB68DA60FB68DA6865
:10344000FB681B689A4207D2FB689A68FB681B6C92
:103450005B421A44FB68DA607B68022B05D13B694A
:10346000002B02D03B69013B3B613B695A1CFB6866
:103470009A637B6918461837BD4680BD80B582B017
:1034800000AF786039607B681B6C002B18D07B68BC
:10349000DA687B681B6C1A447B68DA607B68DA68E0
:1034A0007B689B689A4203D37B681A687B68DA6002
:1034B0007B68D9687B681B6C1A4638681EF036FD3D
:1034C00000BF0837BD4680BD80B584B000AF7860CE
:1034D00001F058FE7B6893F84530FB731EE07B6873
:1034E0009B6C002B08D0786800F0DAF80346002BBC
:1034F00010D000F061FE0DE07B685B6A002B12D0FB
:103500007B682433184600F083FD0346002B01D06E
:1035100000F052FEFB7B013BDBB2FB7397F90F30EF
:10352000002BDCDC00E000BF7B68FF2283F8452035
:1035300001F056FE01F026FE7B6893F84430BB7321
:1035400011E07B681B69002B12D07B681033184692
:1035500000F05EFD0346002B01D000F02DFEBB7B8A
:10356000013BDBB2BB7397F90E30002BE9DC00E0C6
:1035700000BF7B68FF2283F8442001F031FE00BFCA
:103580001037BD4680BD80B584B000AF786001F0D3
:10359000F9FD7B689B6B002B02D10123FB6001E0EE
:1035A0000023FB6001F01CFEFB6818461037BD4687
:1035B00080BD80B584B000AF786001F0E3FD7B682A
:1035C0009A6B7B68DB6B9A4202D10123FB6001E0BE
:1035D0000023FB6001F004FEFB6818461037BD466F
:1035E00080BD000080B485B000AF786039600023F2
:1035F000FB6014E00F4AFB6852F83330002B0BD10C
:103600000C49FB683A6841F833200A4AFB68DB0042
:1036100013447A685A6006E0FB680133FB60FB687C
:10362000072BE7D900BF00BF1437BD465DF8047B08
:10363000704700BF0C03002080B586B000AFF86073
:10364000B9607A60FB687B6101F09CFD7B6993F84F
:1036500044305BB2B3F1FF3F03D17B69002283F8B2
:1036600044207B6993F845305BB2B3F1FF3F03D14F
:103670007B69002283F8452001F0B2FD7B699B6BDA
:10368000002B06D17B6924337A68B968184600F0AC
:1036900095FC7869FFF718FF00BF1837BD4680BD5D
:1036A00080B586B000AF78607B689B6C3B6100237F
:1036B0007B613B69002B05D140F649322049214806
:1036C0001EF044FD3B699A6B3B69DB6B9A4205D364
:1036D00040F64A321A491B481EF038FD3B699A6B86
:1036E0003B69DB6B9A4225D23B6993F84530FB730B
:1036F0003B1D002219463869FFF756FE786197F99D
:103700000F30B3F1FF3F0ED13B695B6A002B11D044
:103710003B692433184600F07BFC0346002B09D09C
:1037200001237B6106E0FB7B0133DBB25AB23B69CC
:1037300083F845207B6918461837BD4680BD00BF19
:10374000009A0208509A020880B58CB004AFF86065
:10375000B9603B601346FB80FB889B00184601F074
:1037600015FA78617B69002B0ED05C2001F00EFA0F
:10377000F861FB69002B03D0FB697A691A6305E0E5
:10378000786901F0C1FA01E00023FB61FB69002BBD
:1037900013D0FA8800230393FB690293FB6A019319
:1037A000BB6A00933B68B968F86800F00FF8F869E5
:1037B00000F09AF80123BB6102E04FF0FF33BB61D8
:1037C000BB6918462037BD4680BD000080B586B075
:1037D00000AFF860B9607A603B60BB6A186B7B68C9
:1037E0009B001A46A5211EF0C9FBBB6A1A6B7B68B9
:1037F00003F18043013B9B0013443B613B6923F091
:1038000007033B613B6903F00703002B05D04FF42E
:103810005972334933481EF099FCBB68002B1FD006
:1038200000237B6112E0BA687B6913441978BA6A95
:103830007B69134434330A461A70BA687B691344AF
:103840001B78002B06D07B6901337B617B690F2BD2
:10385000E9D900E000BFBB6A002283F8432003E0FF
:10386000BB6A002283F834203B6A1F2B01D91F2337
:103870003B62BB6A3A6ADA62BB6A3A6ADA64BB6A7A
:1038800000221A65BB6A04331846FFF7AEF9BB6A1B
:1038900018331846FFF7A9F9BB6ABA6A1A613B6A7E
:1038A000C3F12002BB6A9A61BB6ABA6A5A62BB6AF8
:1038B00000225A65BB6A002283F858203A68F968EA
:1038C000386901F039FB0246BB6A1A607B6A002B3B
:1038D00002D07B6ABA6A1A6000BF1837BD4680BD45
:1038E000609A0208B09A020880B582B000AF786092
:1038F00001F048FC2C4B1B6801332B4A13602B4B07
:103900001B68002B09D1294A7B681360264B1B6872
:10391000012B10D100F074FC0DE0254B1B68002B2F
:1039200009D1224B1B68DA6A7B68DB6A9A4202D8AB
:103930001E4A7B6813601F4B1B6801331D4A1360CE
:103940001C4B1A687B685A647B68DB6A01229A40C8
:10395000194B1B681343184A13607B68DA6A1346D5
:103960009B0013449B00154A1A447B680433194694
:103970001046FFF747F901F033FC0D4B1B68002B95
:103980000ED00A4B1B68DA6A7B68DB6A9A4207D260
:103990000B4B4FF080521A60BFF34F8FBFF36F8F06
:1039A00000BF0837BD4680BD400600204C03002004
:1039B0004C0600205C060020480600205003002032
:1039C00004ED00E080B584B000AF786001F0DAFB70
:1039D0007B68002B02D1364B1B6800E07B68FB60E4
:1039E000FB6804331846FFF76AF90346002B15D12C
:1039F000FB68DA6A2F4913469B0013449B000B4473
:103A00001B68002B0AD1FB68DB6A012202FA03F370
:103A1000DA43294B1B681340274A1360FB689B6AF3
:103A2000002B04D0FB6818331846FFF748F9234BE6
:103A30001B680133214A13601D4B1B68FA689A42C8
:103A40000BD1FB68043319461D48FFF7DBF81D4B0B
:103A50001B6801331B4A136009E01B4B1B68013BC9
:103A6000194A1360F86800F039FC00F047FC01F0D7
:103A7000B7FB164B1B68002B16D00D4B1B68FA6862
:103A80009A4211D1124B1B68002B05D040F2DA424A
:103A9000104911481EF05AFB104B4FF080521A602B
:103AA000BFF34F8FBFF36F8F00BF1037BD4680BD90
:103AB0004C03002050030020480600205C06002034
:103AC0001406002028060020400600204C06002096
:103AD00068060020609A0208B09A020804ED00E02F
:103AE00080B584B000AF78600023FB607B68002B5A
:103AF00012D0114B1B68002B05D040F244520F49E5
:103B00000F481EF023FB00F06BF80021786800F0EE
:103B1000B3FC00F073F8F860FB68002B07D1094B89
:103B20004FF080521A60BFF34F8FBFF36F8F00BF0B
:103B30001037BD4680BD00BF68060020609A0208AD
:103B4000B09A020804ED00E080B584B002AF1C4BCF
:103B5000019300230093002382221A491A48FFF799
:103B6000F3FD78607B68012B02D100F0EBFC7860FC
:103B70007B68012B16D14FF0500383F31188BFF3FC
:103B80006F8FBFF34F8F3B6000BF104B4FF0FF3282
:103B90001A600F4B01221A600E4B00221A6001F0CE
:103BA0004FFA09E07B68B3F1FF3F05D140F62A02E6
:103BB00009490A481EF0CAFA00BF0837BD4680BD51
:103BC00064060020C09A0208D14100086006002067
:103BD0004C06002044060020609A0208B09A0208B1
:103BE00080B400AF044B1B680133034A136000BF6D
:103BF000BD465DF8047B70476806002080B584B040
:103C000000AF0023FB600023BB603F4B1B68002B11
:103C100005D140F699023D493D481EF097FA01F062
:103C2000B1FA394B1B68013B374A1360364B1B68AE
:103C3000002B61D1374B1B68002B5DD02EE0364B3B
:103C4000DB68DB68FB60FB6818331846FFF737F862
:103C5000FB6804331846FFF732F8FB68DB6A012281
:103C60009A402E4B1B6813432C4A1360FB68DA6A98
:103C700013469B0013449B00294A1A44FB680433F3
:103C800019461046FEF7BEFFFB68DA6A254B1B6833
:103C9000DB6A9A4202D3244B01221A601E4B1B6836
:103CA000002BCCD1FB68002B01D000F027FB1F4B71
:103CB0001B687B607B68002B10D000F04BF803463C
:103CC000002B02D0184B01221A607B68013B7B60FD
:103CD0007B68002BF1D1154B00221A60124B1B6838
:103CE000002B09D00123BB60114B4FF080521A60AA
:103CF000BFF34F8FBFF36F8F01F072FABB681846A6
:103D00001037BD4680BD00BF68060020609A0208DB
:103D1000B09A020840060020000600204806002055
:103D2000500300204C0300205406002050060020C1
:103D300004ED00E080B483B000AF054B1B687B60EE
:103D40007B6818460C37BD465DF8047B704700BFA2
:103D50004406002080B586B000AF00237B614C4B49
:103D60001B68002B40F089804A4B1B6801333B6184
:103D7000484A3B6913603B69002B1BD1464B1B68CB
:103D80001B68002B05D040F6A922444944481EF088
:103D9000DDF9414B1B68FB60424B1B683E4A1360D8
:103DA000404AFB681360404B1B6801333E4A136076
:103DB00000F0A4FA3D4B1B683A699A4248D3364B4F
:103DC0001B681B68002B04D1384B4FF0FF321A6080
:103DD0003EE0314B1B68DB68DB68BB60BB685B683F
:103DE0007B603A697B689A4203D2304A7B681360F1
:103DF0002EE0BB6804331846FEF761FFBB689B6A80
:103E0000002B04D0BB6818331846FEF758FFBB6878
:103E1000DB6A01229A40264B1B681343244A136035
:103E2000BB68DA6A13469B0013449B00214A1A447C
:103E3000BB68043319461046FEF7E4FEBB68DA6A35
:103E40001D4B1B68DB6A9A42B9D301237B61B6E73D
:103E5000194B1B68DA6A174913469B0013449B00F1
:103E60000B441B68012B01D901237B61134B1B6899
:103E7000002B07D001237B6104E0114B1B68013349
:103E80000F4A13607B6918461837BD4680BD00BFD6
:103E90006806002044060020F8050020609A020809
:103EA000B09A0208FC050020580600206006002099
:103EB00048060020500300204C0300205406002038
:103EC0005006002080B584B000AF234B1B68002B48
:103ED00003D0224B01221A603AE0204B00221A60E4
:103EE0001F4B1B687B607B68B3FA83F3FB70FB7826
:103EF000C3F11F03FB601B49FA6813469B00134480
:103F00009B000B441B68002B05D140F6E13216499B
:103F100016481EF01BF9FA6813469B0013449B00D9
:103F2000104A1344BB60BB685B685A68BB685A6040
:103F3000BB685A68BB6808339A4204D1BB685B68A7
:103F40005A68BB685A60BB685B68DB68084A1360E4
:103F500000BF1037BD4680BD680600205406002013
:103F60004806002050030020609A0208B09A020818
:103F70004C03002080B582B000AF786039607B6868
:103F8000002B05D140F6FA3209490A481EF0DEF846
:103F9000094B1B68183319467868FEF757FE012154
:103FA000386800F069FA00BF0837BD4680BD00BF21
:103FB000609A0208B09A02084C03002080B584B0D1
:103FC00000AFF860B9607A60FB68002B05D140F65D
:103FD00025420C490C481EF0B9F80C4B1B681833ED
:103FE0001946F868FEF70EFE7B68002B02D04FF0F2
:103FF000FF33BB607968B86800F03EFA00BF103745
:10400000BD4680BD609A0208B09A02084C030020A9
:1040100080B584B000AF78607B68DB68DB68BB602C
:10402000BB68002B05D140F65542224922481EF0BC
:104030008DF8BB6818331846FEF741FE1F4B1B680E
:10404000002B1CD1BB6804331846FEF738FEBB6852
:10405000DB6A01229A401A4B1B681343184A13600B
:10406000BB68DA6A13469B0013449B00154A1A4446
:10407000BB68043319461046FEF7C4FD05E0BB6873
:10408000183319461048FEF7BDFDBB68DA6A0F4BBE
:104090001B68DB6A9A4205D90123FB600C4B0122A5
:1040A0001A6001E00023FB60FB6818461037BD462C
:1040B00080BD00BF609A0208B09A0208680600201E
:1040C0004806002050030020000600204C0300207A
:1040D0005406002080B483B000AF7860064B1A68A5
:1040E0007B681A60054B1A687B685A6000BF0C3702
:1040F000BD465DF8047B704758060020440600204A
:1041000080B586B000AF786039607B68002B05D140
:1041100040F6CE42244925481EF018F83B68002B93
:1041200005D140F6CF42204920481EF00FF801F09B
:1041300029F81F4B1B683B617B685B683A69D31A9F
:10414000FB603B681B68B3F1FF3F02D100237B613A
:1041500023E07B681A68174B1B689A4207D07B687C
:104160005B683A699A4202D301237B6115E03B68A0
:104170001B68FA689A420BD23B681A68FB68D21A2D
:104180003B681A607868FFF7A5FF00237B6104E0B5
:104190003B6800221A6001237B6101F021F87B69F2
:1041A00018461837BD4680BD609A0208B09A0208CA
:1041B000440600205806002080B400AF034B0122C3
:1041C0001A6000BFBD465DF8047B704754060020AE
:1041D00080B582B000AF786000F052F8064B1B68E3
:1041E000012BF9D9054B4FF080521A60BFF34F8F66
:1041F000BFF36F8FF0E700BF5003002004ED00E035
:1042000080B582B000AF00237B600CE07A68134673
:104210009B0013449B00124A13441846FEF7C5FC4A
:104220007B6801337B607B681F2BEFD90D48FEF75D
:10423000BCFC0D48FEF7B9FC0C48FEF7B6FC0C4878
:10424000FEF7B3FC0B48FEF7B0FC0B4B054A1A60B7
:104250000A4B054A1A6000BF0837BD4680BD00BF43
:1042600050030020D0050020E405002000060020B7
:10427000140600202C060020F8050020FC05002074
:1042800080B582B000AF19E000F07CFF104BDB6816
:10429000DB687B607B6804331846FEF710FD0D4B2E
:1042A0001B68013B0B4A13600B4B1B68013B0A4A1E
:1042B000136000F095FF786800F010F8064B1B685B
:1042C000002BE1D100BF00BF0837BD4680BD00BF55
:1042D00014060020400600202806002080B582B089
:1042E00000AF78607B681B6B184600F00DFD7868A6
:1042F00000F00AFD00BF0837BD4680BD80B483B022
:1043000000AF0C4B1B681B68002B04D10A4B4FF00D
:10431000FF321A6008E0074B1B68DB68DB687B60D4
:104320007B685B68044A136000BF0C37BD465DF8CC
:10433000047B7047F80500206006002080B483B03D
:1043400000AF0B4B1B68002B02D101237B6008E000
:10435000084B1B68002B02D102237B6001E0002385
:104360007B607B6818460C37BD465DF8047B704760
:104370004C0600206806002080B584B000AF78604D
:104380007B68BB600023FB607B68002B64D0354BEF
:104390001B68BA689A4205D041F213023249334889
:1043A0001DF0D4FEBB681B6D002B05D141F2140239
:1043B0002D492E481DF0CAFEBB681B6D5A1EBB68F6
:1043C0001A65BB68DA6ABB68DB6C9A4244D0BB688A
:1043D0001B6D002B40D1BB6804331846FEF76FFC01
:1043E0000346002B15D1BB68DA6A214913469B00AE
:1043F00013449B000B441B68002B0AD1BB68DB6A8B
:10440000012202FA03F3DA431A4B1B681340194ADC
:104410001360BB68DA6CBB68DA62BB68DB6AC3F145
:104420002002BB689A61BB68DB6A01229A40114B8B
:104430001B6813430F4A1360BB68DA6A13469B007C
:1044400013449B000A4A1A44BB68043319461046B9
:10445000FEF7D8FB0123FB60FB6818461037BD460A
:1044600080BD00BF4C030020609A0208B09A020889
:10447000500300204806002080B584B000AF78606B
:104480003960294B1B68FB60284B1B6804331846B6
:10449000FEF715FC0346002B0BD1244B1B68DB6A8F
:1044A000012202FA03F3DA43214B1B681340204A2E
:1044B00013607B68B3F1FF3F0AD13B68002B07D044
:1044C0001A4B1B68043319461A48FEF79BFB26E07B
:1044D000FA687B681344BB60144B1B68BA685A6067
:1044E000BA68FB689A4209D2134B1A680F4B1B68D3
:1044F000043319461046FEF7A9FB10E00F4B1A686B
:104500000A4B1B68043319461046FEF79FFB0C4B01
:104510001B68BA689A4202D2094ABB68136000BF9E
:104520001037BD4680BD00BF440600204C0300206C
:10453000480600202C060020FC050020F80500207D
:104540006006002080B584B002AF00237B6000F0DD
:10455000E7FA0F4B1B68002B0BD00E4B01931F2368
:10456000009300234FF482720B490C48FFF7ECF8DC
:1045700078607B68002B05D140F213120849094886
:104580001DF0E4FD7B6818460837BD4680BD00BFBE
:104590009C060020A0060020D89A0208D9460008F0
:1045A000E09A0208309B020880B58AB000AFF8603C
:1045B000B9607A603B6000237B62FB68002B05D109
:1045C0004FF4C1721B491C481DF0C0FD1B4B1B68FA
:1045D000002B2AD0BB687B617B68BB61FB68FB61F9
:1045E000BB68052B18DCFFF7A9FE0346022B09D197
:1045F000124B186807F1140100233A6BFEF74EFCCA
:10460000786212E00D4B186807F1140100230022B4
:10461000FEF744FC786208E0084B186807F11401C3
:1046200000233A68FEF744FD78627B6A1846283713
:10463000BD4680BDE09A0208309B02089C0600201F
:1046400080B586B002AF78603960204B1B68DB68AC
:10465000DB68FB60FB6804331846FEF730FBFB6841
:1046600093F8283003F00403002B1ED0FB689A69EE
:104670007B68D1187B683A68F86800F0D1F8034687
:10468000002B1BD00023009300237A680021F868D8
:10469000FFF78AFFB860BB68002B0FD140F21122F0
:1046A0000B490C481DF052FD08E0FB6893F82830D8
:1046B00023F00103DAB2FB6883F82820FB681B6A49
:1046C000F868984700BF1037BD4680BD94060020AB
:1046D000E09A0208309B020880B584B000AF786091
:1046E00007F10803184600F057F8F860BB68194650
:1046F000F86800F003F800F0D5F8F1E780B584B071
:1047000000AF78603960FFF76BFA07F108031846CD
:1047100000F066F8F860BB68002B30D13B68002BD6
:104720000AD17A68FB689A4206D8FFF767FAF968F7
:104730007868FFF785FF24E03B68002B08D0134B17
:104740001B681B68002B01D1012300E000233B60A4
:104750000F4B18687A68FB68D31A3A681946FEF757
:104760006BFFFFF74BFA0346002B0AD1094B4FF0C2
:1047700080521A60BFF34F8FBFF36F8F01E0FFF7D6
:104780003DFA00BF1037BD4680BD00BF980600202F
:104790009C06002004ED00E080B485B000AF786096
:1047A0000E4B1B681B68002B01D1012200E0002288
:1047B0007B681A607B681B68002B05D1074B1B6860
:1047C000DB681B68FB6001E00023FB60FB681846A8
:1047D0001437BD465DF8047B704700BF9406002087
:1047E00080B584B000AF7860FFF7A4FAF8600B4B97
:1047F0001B68FA689A4205D200F02EF97B68012204
:104800001A6002E07B6800221A60044AFB681360A9
:10481000FB6818461037BD4680BD00BFA4060020C7
:1048200080B586B000AFF860B9607A603B60002365
:104830007B61FB68BA685A60FB68FA681A61BA68FB
:104840007B689A4212D87A683B68D21AFB689B69E7
:104850009A4202D301237B611BE0104B1A68FB686C
:10486000043319461046FEF7F1F912E07A683B6806
:104870009A4206D2BA683B689A4202D301237B610E
:1048800007E0074B1A68FB68043319461046FEF729
:10489000DDF97B6918461837BD4680BD98060020B3
:1048A0009406002080B58CB002AFBDE0BB68002B41
:1048B00014DA07F1080304337B627B6A002B05D10D
:1048C00040F2F122614962481DF040FC7B6A1B689E
:1048D0007A6A50687A6A926811469847BB68002BDA
:1048E000C0F2A1803B693B623B6A5B69002B04D04C
:1048F0003B6A04331846FEF7E2F93B1D1846FFF702
:104900006FFFF861BB68092B00F28E8001A252F89C
:1049100023F000BF3D4900083D4900083D4900081B
:10492000A9490008BD490008FD4900083D490008A3
:104930003D490008A9490008BD4900083B6A93F8B1
:10494000283043F00103DAB23B6A83F82820FA6882
:104950003B6A9B69D118FB68FA69386AFFF760FF08
:104960000346002B60D03B6A1B6A386A98473B6A53
:1049700093F8283003F00403002B55D0FA683B6A03
:104980009B691A440023009300230021386AFFF733
:104990000BFEB861BB69002B46D14FF44B722B491B
:1049A0002B481DF0D3FB3FE03B6A93F8283023F0FF
:1049B0000103DAB23B6A83F8282035E03B6A93F8BA
:1049C000283043F00103DAB23B6A83F82820FA6802
:1049D0003B6A9A613B6A9B69002B05D14FF4517287
:1049E0001A491B481DF0B2FB3B6A9A69FB69D11852
:1049F000FB69FA69386AFFF713FF15E03B6A93F821
:104A0000283003F00203002B03D1386A00F07CF950
:104A10000AE03B6A93F8283023F00103DAB23B6ADC
:104A200083F8282000E000BF0A4B1B6807F108014B
:104A300000221846FEF7E4FB0346002B7FF436AF56
:104A400000BF00BF2837BD4680BD00BFE09A020806
:104A5000309B02089C06002080B588B002AF43E07E
:104A60002B4B1B68DB681B683B61294B1B68DB68B1
:104A7000DB68FB60FB6804331846FEF720F9FB682F
:104A80001B6AF8689847FB6893F8283003F0040322
:104A9000002B29D0FB689B693A691344BB60BA6854
:104AA0003B699A420ED9FB68BA685A60FB68FA689B
:104AB0001A61174B1A68FB68043319461046FEF753
:104AC000C5F811E00023009300233A690021F8683B
:104AD000FFF76AFD78607B68002B05D140F29D32BC
:104AE0000C490D481DF032FB094B1B681B68002B5D
:104AF000B6D1074B1B687B61084B1B68044A1360E7
:104B0000064A7B69136000BF1837BD4680BD00BFF1
:104B100094060020E09A0208309B020898060020C4
:104B200080B500AF00F02EFB124B1B68002B1DD18F
:104B30001148FEF73AF81148FEF737F8104B0E4AC5
:104B40001A60104B0D4A1A60002210210520FEF752
:104B500049F90346074A1360064B1B68002B05D032
:104B6000044B1B6808491846FEF73CFD00F038FB73
:104B700000BF80BD9C0600206C060020800600203F
:104B80009406002098060020409B020880B586B05D
:104B900000AF78600023FB60FFF722F8524B1B68E0
:104BA000002B01D100F00CF9504B1A687B681340C0
:104BB000002B40F087807B68002B17D008227B6891
:104BC00013447B607B6803F00703002B0ED07B68E7
:104BD00023F0070308337B607B6803F00703002B97
:104BE00004D09722424943481DF0B0FA7B68002B5D
:104BF00068D0414B1B687A689A4263D83F4B3B614F
:104C00003E4B1B687B6104E07B693B617B691B68F1
:104C10007B617B695B687A689A4203D97B691B6810
:104C2000002BF1D1304B1B687A699A424AD03B691C
:104C30001B6808221344FB607B691A683B691A6091
:104C40007B695A687B68D21A08235B009A4219D99B
:104C50007A697B681344BB60BB6803F00703002BD1
:104C600004D0C422224923481DF070FA7B695A6897
:104C70007B68D21ABB685A607B697A685A60B868E8
:104C800000F000F91C4B1A687B695B68D31A1A4A5A
:104C90001360194B1A681A4B1B689A4203D2164BC1
:104CA0001B68174A13607B695A68104B1B681A43CC
:104CB0007B695A607B6900221A60124B1B680133C2
:104CC000104A1360FEF79AFFFB6803F00703002BFE
:104CD00005D040F20512064906481DF037FAFB6878
:104CE00018461837BD4680BDB0560020C456002077
:104CF000489B02089C9B0208B4560020A85600203E
:104D0000B8560020BC56002080B584B000AF786053
:104D10007B68FB607B68002B43D008235B42FA680A
:104D20001344FB60FB68BB60BB685A681F4B1B6881
:104D30001340002B05D140F219121D491D481DF0EA
:104D400005FABB681B68002B05D04FF48D7218491B
:104D500018481DF0FBF9BB685A68144B1B681340D8
:104D6000002B1ED0BB681B68002B1AD1BB685A6889
:104D70000E4B1B68DB431A40BB685A60FEF730FFDE
:104D8000BB685A680C4B1B6813440B4A1360B86825
:104D900000F078F8094B1B680133084A1360FEF7EE
:104DA0002DFF00BF1037BD4680BD00BFC456002098
:104DB000489B02089C9B0208B4560020C056002065
:104DC00080B485B000AF4FF4A043BB60274BFB60BD
:104DD000FB6803F00703002B0CD0FB680733FB6074
:104DE000FB6823F00703FB60BA68FB68D31A1F4A0D
:104DF0001344BB60FB687B601D4A7B6813601C4BDF
:104E000000225A607B68BA681344FB600822FB6882
:104E10009B1AFB60FB6823F00703FB60FB68154AE5
:104E20001360144B1B6800225A60124B1B6800224F
:104E30001A607B683B603B68FA68D21A3B685A602C
:104E40000C4B1A683B681A603B685B680A4A13603F
:104E50003B685B68094A1360094B4FF000421A60D7
:104E600000BF1437BD465DF8047B7047A8060020DC
:104E7000A8560020B0560020B8560020B456002096
:104E8000C456002080B485B000AF7860284BFB602A
:104E900002E0FB681B68FB60FB681B687A689A424B
:104EA000F7D8FB68BB60FB685B68BA6813447A6834
:104EB0009A4208D1FB685A687B685B681A44FB68B1
:104EC0005A60FB687B607B68BB607B685B68BA6824
:104ED0001A44FB681B689A4218D1FB681A68154B84
:104EE0001B689A420DD07B685A68FB681B685B6838
:104EF0001A447B685A60FB681B681A687B681A60F2
:104F000008E00C4B1A687B681A6003E0FB681A68BB
:104F10007B681A60FA687B689A4202D0FB687A68FC
:104F20001A6000BF1437BD465DF8047B704700BFB0
:104F3000A8560020B056002080B485B000AFF860BD
:104F4000B9607A60FB68043BFB60FB684FF08072DD
:104F50001A60FB68043BFB60BB6823F00102FB683E
:104F60001A60FB68043BFB600C4AFB681A60FB6834
:104F7000143BFB607A68FB681A60FB68043BFB60CB
:104F8000FB686FF002021A60FB68203BFB60FB6865
:104F900018461437BD465DF8047B7047A14F0008E2
:104FA00080B582B000AF00233B600E4B1B68B3F1AD
:104FB000FF3F04D0E3220C490C481DF0C7F84FF026
:104FC000500383F31188BFF36F8FBFF34F8F7B6064
:104FD00000BF00BF3B68002BFCD000BF00BF0837FC
:104FE000BD4680BD14000020AC9B0208FC9B02085B
:104FF000074B19680868B0E8F04F80F30988BFF3E1
:105000006F8F4FF0000080F311887047AFF300807E
:105010004C03002000BF00BF08480068006880F310
:1050200008884FF0000080F3148862B661B6BFF3C1
:105030004F8FBFF36F8F00DF00BF00BF08ED00E0B0
:1050400080B584B000AF444B1B68444A934205D1FD
:105050004FF49472424943481DF078F83E4B1B6868
:10506000414A934205D140F229123D493D481DF085
:105070006DF83E4BFB60FB681B78DBB2BB60FB68E6
:10508000FF221A70FB681B78DBB2FB71FB79DBB285
:1050900003F05003DAB2364B1A70364B07221A600F
:1050A00009E0344B1B68013B324A1360FB79DBB2E9
:1050B0005B00DBB2FB71FB79DBB203F08003802B7A
:1050C000EFD02C4B1B68C3F10703042B05D040F233
:1050D0005112234923481DF039F8264B1B68C3F1B0
:1050E0000703042B05D04FF4AD721D491D481DF078
:1050F0002DF8204B1B681B021E4A13601D4B1B68BA
:1051000003F4E0631B4A1360BB68DAB2FB681A70F1
:10511000194B1B68184A43F470031360164B1B6845
:10512000154A43F07043136000F0D8F8134B002287
:105130001A6000F0F7F8124B1B68114A43F0404325
:105140001360FFF769FFFEF7BDFEFFF729FF00239D
:1051500018461037BD4680BD00ED00E071C20F411A
:10516000AC9B0208FC9B020870C20F4100E400E007
:10517000C8560020CC56002020ED00E0140000208E
:1051800034EF00E080B582B000AF4FF0500383F3FE
:105190001188BFF36F8FBFF34F8F7B6000BF0C4B45
:1051A0001B6801330A4A1360094B1B68012B0AD1A3
:1051B000084B1B68DBB2002B05D040F29F1206495A
:1051C00006481CF0C3FF00BF0837BD4680BD00BFC6
:1051D0001400002004ED00E0AC9B0208FC9B0208D8
:1051E00080B582B000AF0E4B1B68002B05D14FF489
:1051F000D3720C490C481CF0A9FF094B1B68013BFA
:10520000074A1360064B1B68002B05D100237B6007
:105210007B6883F3118800BF00BF0837BD4680BD9F
:1052200014000020AC9B0208FC9B02080000000058
:10523000EFF30980BFF36F8F154B1A681EF0100F44
:1052400008BF20ED108A20E9F04F10602DE9090019
:105250004FF0500080F31188BFF34F8FBFF36F8F73
:10526000FEF730FE4FF0000080F3118809BC19688A
:105270000868B0E8F04F1EF0100F08BFB0EC108ABD
:1052800080F30988BFF36F8F704700BFAFF30080D2
:105290004C03002000BF00BF80B582B000AF4FF0CC
:1052A000500383F31188BFF36F8FBFF34F8F7B6081
:1052B00000BFFEF74FFD0346002B03D0064B4FF017
:1052C00080521A6000233B603B6883F3118800BF63
:1052D00000BF0837BD4680BD04ED00E080B400AFDC
:1052E0000B4B00221A600B4B00221A600A4B1B6802
:1052F0000A4AA2FB03231B09094A013B1360044B22
:1053000007221A6000BFBD465DF8047B704700BFEE
:1053100010E000E018E000E024000020CDCCCCCC70
:1053200014E000E0DFF80C00016841F47001016056
:10533000704700BF88ED00E080B582B000AFEFF3AA
:1053400005837B607B680F2B0FD9114A7B68134460
:105350001B78FB700F4B1B78FA789A4205D240F20B
:10536000F2220D490D481CF0F1FE0D4B1B6803F4B1
:10537000E0620C4B1B689A4205D940F202320649A2
:1053800006481CF0E3FE00BF0837BD4680BD00BFE5
:10539000F0E300E0C8560020AC9B0208FC9B02082A
:1053A0000CED00E0CC56002080B584B000AF7860F2
:1053B000786800F01BF80346FB73FB7B0A4AD35C5A
:1053C000012B0CD0FB7B084A0121D154FB7B01222D
:1053D00002FA03F3BB600121B868FDF7CBF900BF07
:1053E0001037BD4680BD00BFD056002080B483B0CA
:1053F00000AF78607B68DB6803F13F4303F57E0311
:105400009B0ADBB218460C37BD465DF8047B70473B
:1054100080B485B000AF78600023FB73FB7B0F2B5B
:105420000BD87B681A69FB7B22FA03F3012B03D0AC
:10543000FB7B0133FB73F1E700BFFB7B184614379E
:10544000BD465DF8047B704790B585B000AFF8604D
:10545000B9607A60FB70FB68BA68DA60FB687A68EA
:105460001A61FB6801221A72F868FFF79DFFFB685A
:1054700003225A71FB681A69FB681A60FB68FA78A4
:105480001A71F868FFF7B2FF03461C01F868FFF7CE
:10549000BFFF034623441A46FB685A61FB68DB687A
:1054A000FA6811461846FCF7A7FF00BF1437BD463F
:1054B00090BD80B584B000AF78600B46FB7013469A
:1054C000BB70FB781B09DBB29B0203F1804303F541
:1054D0000033FB60FA687B68DA60FB7803F00F0347
:1054E000012202FA03F31A467B681A617B68D968C5
:1054F0007B681A69BB787868FFF7A6FF00BF103792
:10550000BD4680BD80B582B000AF78600B46FB70B1
:105510007B68FA781A717B681B7A012B06D17B684D
:10552000DB687A6811461846FCF766FF00BF08374B
:10553000BD4680BD80B582B000AF78600B46FB7081
:10554000FB78002B09D17B68DA687B681B699BB20A
:1055500019461046FDF708F808E07B68DA687B68B2
:105560001B699BB219461046FCF7EFFF00BF0837D6
:10557000BD4680BD80B582B000AF78607B68DA68D8
:105580007B681B699BB219461046FCF7C4FF0346B3
:1055900018460837BD4680BD80B584B000AF78603E
:1055A0000B46FB707868FFF733FF0346FB817B688F
:1055B000DB68FA78F9891846FCF7E5FF00BF103779
:1055C000BD4680BD80B582B000AF78600B46FB70F1
:1055D0007B681833FA7811461846FFF793FF00BF2F
:1055E0000837BD4680BD80B582B000AF786001212C
:1055F0007868FFF7E7FF00BF0837BD4680BD80B57C
:1056000082B000AF786000217868FFF7DBFF00BF51
:105610000837BD4680BD80B582B000AF78607B683A
:10562000183301211846FFF785FF00BF0837BD4634
:1056300080BD80B582B000AF78607B6818330021F0
:105640001846FFF777FF00BF0837BD4680BD80B51D
:1056500082B000AF78607B6801211846FFF76AFFCF
:1056600000BF0837BD4680BD80B582B000AF78600E
:105670007B6800211846FFF75DFF00BF0837BD4675
:1056800080BD80B582B000AF78607B6893F834301D
:10569000002B05D17B685B8E184601F011FD04E0FC
:1056A0007B685B8E184601F04BFD00BF0837BD4696
:1056B00080BD80B582B000AF78600B46FB701346AA
:1056C000BB707B68F97801221846FFF7F2FE7B6811
:1056D0001833B97801221846FFF7EBFE00BF0837F0
:1056E000BD4680BD80B582B000AF78607868FFF7B6
:1056F0007AFF7868FFF78FFF7868FFF7A8FF786870
:10570000FFF7BFFF7868FFF794FF7868FFF7B9FFEE
:105710007868FFF7A9FF00BF0837BD4680BD80B598
:1057200082B000AF78607868FFF75DFF7868FFF7B8
:105730009BFF7868FFF77DFF7868FFF7A2FF786826
:10574000FFF785FF7868FFF766FF7868FFF799FF36
:1057500000BF0837BD4680BD80B584B000AF78601B
:105760007B681B8EFB737868FFF77EFF7868FFF716
:1057700046FF7868FFF74FFF7868FFF768FF7B68A0
:1057800018331846FFF7F6FE0346002B14BF01231B
:105790000023DBB2002B0AD0FB7B013BFB73FB7BBE
:1057A000002BECD07868FFF7BAFF012303E078689C
:1057B000FFF75AFF002318461037BD4680BD80B55D
:1057C00084B000AF78600B46FB707868FFF70BFF82
:1057D0007868FFF749FF0023FB73FB7B072B20D87A
:1057E00097F90330002B03DA7868FFF714FF02E023
:1057F0007868FFF71EFFFB785B00FB707868FFF7A7
:1058000040FF7868FFF723FF7868FFF73AFF786872
:10581000FFF72AFF7868FFF734FFFB7B0133FB7348
:10582000DBE700BF1037BD4680BD80B582B000AF5A
:105830007860084611461A460346FB700B46BB705B
:1058400013467B707868FFF74DFFFB781946786840
:10585000FFF7B5FF7868FFF77FFFBB7819467868D8
:10586000FFF7ADFF7868FFF777FF7B781946786818
:10587000FFF7A5FF7868FFF76FFF7868FFF74FFF26
:1058800000BF0837BD4680BD80B582B000AF7860EC
:105890000B46FB701346BB707B68F97801221846F3
:1058A000FFF707FE7B68BA781A767A687B681B7EFA
:1058B000002B0CBF01230023DBB219461046FFF773
:1058C00039FE00BF0837BD4680BD80B582B000AF4D
:1058D00078607B685B7E002B0CBF01230023DBB26A
:1058E0001A467B685A767B685B7E002B07D17A6804
:1058F0007B681B7E19461046FFF71CFE0BE07A689A
:105900007B681B7E002B0CBF01230023DBB21946F2
:105910001046FFF70FFE00BF0837BD4680BD0000F0
:1059200080B500AF0120FCF73DFD0346012B0CBF05
:1059300001230023DBB2002B0AD0064B1B6800209A
:105940009847044B5B68002098470120FCF744FD12
:1059500000BF80BDDC56002080B500AF0220FCF700
:1059600021FD0346012B0CBF01230023DBB2002BDA
:105970000AD0064B1B6801209847044B5B68012046
:1059800098470220FCF728FD00BF80BDDC560020B0
:1059900080B500AF0420FCF705FD0346012B0CBFCA
:1059A00001230023DBB2002B0AD0064B1B68022028
:1059B0009847044B5B68022098470420FCF70CFDD5
:1059C00000BF80BDDC56002080B500AF0820FCF78A
:1059D000E9FC0346012B0CBF01230023DBB2002BA3
:1059E0000AD0064B1B6803209847044B5B680320D2
:1059F00098470820FCF7F0FC00BF80BDDC56002073
:105A000080B500AF1020FCF7CDFC0346012B0CBF86
:105A100001230023DBB2002B0AD0064B1B680420B5
:105A20009847044B5B68042098471020FCF7D4FC8F
:105A300000BF80BDDC56002080B500AF2020FCF701
:105A4000B1FC0346012B0CBF01230023DBB2002B6A
:105A50000AD0344B1B6805209847324B5B68052001
:105A600098472020FCF7B8FC4020FCF79BFC03463D
:105A7000012B0CBF01230023DBB2002B0AD0294BE2
:105A80001B6806209847274B5B68062098474020F4
:105A9000FCF7A2FC8020FCF785FC0346012B0CBF21
:105AA00001230023DBB2002B0AD01E4B1B6807200A
:105AB00098471C4B5B68072098478020FCF78CFCBC
:105AC0004FF48070FCF76EFC0346012B0CBF0123E2
:105AD0000023DBB2002B0BD0124B1B680820984729
